:03000000020006F5
:03005F0002000399
:030003000200A058
:200062007E007F000EBE00010FC3EE9440EF6480949F40F022AE827800EE13E692E0F6AF22
:200082001C7800EF13E692E1F6AF1E7800EF13E692E2F6AF207800EF13E692E3F6227508A9
:2000A20001750900750A00750B00750C01750D01750E00750F0075100075110175120175AB
:2000C2001300751400751500751601751701751800751900751A00751B017800E654FEF6FE
:2000E2007800E654FDF67800E654FBF67800E654F7F67800E64408F6750000750000E500A8
:2001020060030201AD7E007F00EE2EFCEF33FDEC2CFCED33EC2408F987057C00E904F886DE
:20012200038B1C8C1D740229F886038B1E8C1F09090987038B208C218D828C83C007C0064E
:20014200120077120062D006D0070EBE00010FC3EE9405EF6480948040AF7E047F00EE2EDA
:20016200FCEF33FDEC2CFCED33EC2408F987057C00E904F886038B1C8C1D740229F8860337
:200182008B1E8C1F09090987038B208C218D828C83C007C006120077120062D006D0071E99
:0F01A200BEFF011FEF30E7B60201009000002200
:02200700D530D2
:06003500E478FFF6D8FD9F
:200013007900E94400601B7A009001B5780175A000E493F2A308B8000205A0D9F4DAF275DD
:02003300A0FF2C
:20003B007800E84400600A790175A000E4F309D8FC7800E84400600C7900900001E4F0A3C3
:04005B00D8FCD9FAFA
:0D0006007581211201B1E582600302000343
:0401B1007582002231
:00000001FF
