:020000040000FA
:1000000000008A114E29013083120313B300B4019A
:10001000B501B6010130B700B800B901BA01BB01A2
:100020000130BC00BD00BE01BF01C0010130C100F4
:10003000C200C301C401C5010130C6008316031309
:1000400007108710071187118515831203179E016A
:100050009F01831203171E08031D4A2983120313ED
:10006000A601A701A801A901831203132808333EA2
:10007000AA000030AB0029080318290FAB072A0893
:100080008312031384008313831203132B18831723
:1000900083120313000883120313AC00AD00AE01FA
:1000A00001302A07AC00AF01AF0D2B08AF072C08B9
:1000B0008312031384008313831203132F188317EF
:1000C00083120313000883120313B000AC00AF01C6
:1000D00002302A07B000B101B10D2B08B10730087A
:1000E00083120313840083138312031331188317BD
:1000F00083120313000883120313B200B000B1018E
:100100000330AA070318AB0A2A08831203138400DA
:100110008313831203132B1883178312031300080E
:1001200083120313B200AA00AB012A08F9000030C1
:10013000FA003008FB003108FC002C08FD002F08F5
:10014000FE002D08FF002E088A11EA218A118A116B
:1001500065228A11043083120313A8070318A90A21
:10016000A60A0319A70A2708803E803E031DBA2865
:1001700005302602031C3428043083120313A60022
:10018000A7011030A800A901831203132808333EE9
:10019000AA000030AB0029080318290FAB072A0872
:1001A0008312031384008313831203132B18831702
:1001B00083120313000883120313AC00AD00AE01D9
:1001C00001302A07AC00AF01AF0D2B08AF072C0898
:1001D0008312031384008313831203132F188317CE
:1001E00083120313000883120313B000AC00AF01A5
:1001F00002302A07B000B101B10D2B08B107300859
:10020000831203138400831383120313311883179B
:1002100083120313000883120313B200B000B1016C
:100220000330AA070318AB0A2A08831203138400B9
:100230008313831203132B188317831203130008ED
:1002400083120313B200AA00AB012A08F9000030A0
:10025000FA003008FB003108FC002C08FD002F08D4
:10026000FE002D08FF002E088A11EA218A118A114A
:1002700065228A11FC3083120313A807031CA9030B
:10028000FF30A607031CA7030314A71F0310031CBA
:10029000C42829280030FF00003008007830FE0014
:1002A0000230FF0080308A11000031228A110000E4
:1002B00083120313C8007F08C7007A30C9000230D8
:1002C000CA00831203134708CB004808CC00FF3054
:1002D000C707031CC8034C084B040319E629043064
:1002E0004907CB00CC01CC0D4A08CC074B08FE00D7
:1002F0004C08FF0080308A11000031228A11000072
:1003000083120313CE007F08CD004908FE004A087F
:10031000FF0080308A11000031228A110000831210
:100320000313D000CC007F08CB00CF000230490778
:10033000CB00CC01CC0D4A08CC074B08FE004C0882
:10034000FF0080308A11000031228A1100008312E0
:100350000313CC00D2007F08D100CB00831203131B
:100360004D08D1004E08D200FF30CD07031CCE034C
:10037000520851040319DF294F08FE005008FF00FE
:1003800080308A11000052228A1100008312031368
:10039000D1004B08831203138400831383120313C9
:1003A0004C18831751088312031380008312031320
:1003B000CF0A0319D00ACB0A0319CC0AAE2906309A
:1003C00083120313C9070318CA0A61298A1100009E
:1003D000032808007F0883120313A500A1007E08EC
:1003E0007D08A2007C087B08A3007A087908A40095
:1003F000250C0318FE29831203130710031C032A7C
:10040000831203130714831203132208A100210C83
:1004100003180D2A831203138710031C122A831258
:1004200003138714831203132308A100210C03185C
:100430001C2A831203130711031C212A831203139E
:100440000715831203132408A100210C03182B2A7B
:10045000831203138711031C302A83120313871599
:100460000800003A0319392A803A0319432AFF0188
:1004700000347E08840083137F1883170008FF0070
:10048000840A000808008A1100006022FD00FE0FA7
:10049000FF03FF0A8A1100006022FC007D08FF00B4
:1004A0007C080800003A0319592A803A0319602A87
:1004B00000347E08840083137F1883170008080027
:1004C0007F088A007E088200080083120313A001BF
:1004D000A10183120313A00A0319A10A2108803E77
:1004E000613E031D752A40302002031C692A080062
:1004F0000134003480340234533400340134003485
:020500000034C5
:02400E00D530AB
:00000001FF
