:100000000040002019020000590200005B020000BD
:1000100000000000000000000000000000000000E0
:100020000000000000000000000000005D02000071
:1000300000000000000000005F02000061020000FC
:10004000630200006302000063020000630200001C
:100050006302000000000000630200006302000071
:1000600063020000630200006302000063020000FC
:1000700063020000630200006302000063020000EC
:1000800063020000910300006302000063020000AD
:1000900063020000630200006302000063020000CC
:1000A0006302000063020000000000000000000086
:1000B0000000000000000000000000000000000040
:1000C000054B0648033310B51B1A062B03D9044B06
:1000D000002B00D0984710BD6C0000206C00002061
:1000E000000000000648074910B5091A8910CB0F17
:1000F0005918491003D0044B002B00D0984710BD6D
:100100006C0000206C0000200000000010B5074CBF
:100110002378002B09D1FFF7D3FF054B002B02D02A
:10012000044800E000BF0123237010BD6C000020D4
:100130000000000030060000094B10B5002B03D072
:100140000849094800E000BF08480368002B02D1B5
:10015000FFF7C8FF10BD064B002BF9D09847F7E713
:100160000000000070000020300600006800002041
:1001700000000000164B002B00D1144B9D4640227E
:1001800092029A1A924600218B460F461348144A4F
:10019000121A00F0F3F90F4B002B00D098470E4BCA
:1001A000002B00D098470020002104000D000D48CE
:1001B000002802D00C4800E000BF00F0B9F9200090
:1001C000290000F02BF900F09DF9C046000008005E
:1001D0000040002000000000000000006C00002033
:1001E0008C000020000000000000000010B501217C
:1001F000122000F0DDF810BD10B50121122000F032
:10020000F5F8C82000F0B6F80021122000F0EEF852
:10021000C82000F0AFF810BD03210A4802680A4365
:100220000260094802680A4302600849084A094B0B
:100230009B1A03DD043BC858D050FBDC00F012F8D9
:10024000FFF798FF24050040540500403C060000DD
:10025000000000206C000020FEE7FEE7FEE7FEE75E
:10026000FEE7FEE72D4B10B51A78012A19D12C4A6A
:100270001268120715D12B4AE0241168F0220800F9
:10028000104021420BD128490968114209D1274960
:10029000274A11608021274A0902116001E03028B5
:1002A000F1D01A78012A0DD11D490968090709D131
:1002B000F0201C4909680140402903D11A49096806
:1002C000014223D01B68DBB2012B25D1144B1B68E4
:1002D0001B0721D1134B1A68F0231A40A02A04D11E
:1002E000114A12681A4203D016E0D02A14D1F7E757
:1002F000114B1A68012A03D1C022104B1A600BE07F
:100300000F4A1A601A68012AFCD1F5E7C121802042
:10031000C900C0054250D5E710BDC046E00F00F04F
:10032000E40F00F0E80F00F0EC0F00F0DFFF07C073
:1003300004050040186C004000EC064014EC064038
:1003400075930000084A0949094B10B51B68885885
:10035000FA22190A1B0618439200002300F0A6F89F
:100360004904C00B084310BD040500000010014003
:100370008800002070B5041E09D0FFF7E3FF0500D8
:1003800000F014F8FFF7DEFF401B8442F8D870BD80
:100390000022044B9A60044A13680133DBB21360F5
:1003A0007047C046FC1001408800002070470000E4
:1003B00000B51E2816D80C4A83009B58032911D873
:1003C000A0220800C133FF33D2059B0000F064F87F
:1003D00002080406002104E00C2102E0042100E0F0
:1003E0000321D15000BDC046A80500001E280DD82D
:1003F000074B8000C058A0220123D205834000296A
:1004000001D1044901E0A121C90053507047C04601
:10041000A80500000C0500007047000010B500F0B2
:1004200011F8FFF7F9FF0120FFF7A4FFFFF7DEFE49
:10043000FFF7E2FE024B002BFAD000E000BFF7E727
:1004400000000000C421114A89005058104B03409D
:10045000C020000203435350802391399B02FF398F
:1004600053501360A321802301220020DB05C90023
:100470005A509A60074B10395850C1200221800011
:100480001950403019501A607047C04600E100E032
:10049000FF00FFFF0010014002B471464908490007
:1004A000095C49008E4402BC7047C046F0B54F4617
:1004B0004646C0B41604360C9946330005042C0C8D
:1004C000070C150C63437E436F4365431C0CAD1949
:1004D00064199C46A64203D980235B029846474490
:1004E0006346250CEF191D044B464A4343432D0C2C
:1004F000240464199918C91920000CBC9046994627
:10050000F0BDC046084B10B50400002B02D00021FE
:1005100000E000BF054B1868836A002B00D09847A5
:10052000200000F033F8C046000000002C06000058
:100530000E4B70B500251E000D4CE41AA410A54208
:1005400004D0AB00F35898470135F8E700F020F8E5
:10055000084B00251E00084CE41AA410A54204D044
:10056000AB00F35898470135F8E770BD60000020F4
:10057000600000206000002064000020030082185A
:10058000934202D019700133FAE77047FEE7C04684
:10059000F8B5C046F8BC08BC9E467047F8B5C046E2
:1005A000F8BC08BC9E467047000000000100000037
:1005B000020000000300000004000000050000002D
:1005C000060000000700000008000000090000000D
:1005D0000A0000000B0000000C0000000D000000ED
:1005E0000E0000000F0000001000000011000000CD
:1005F00012000000130000001400000015000000AD
:10060000160000001700000018000000190000008C
:100610001A0000001B0000001C0000001D0000006C
:100620001E0000001F00000043000000000000202A
:0406300000000000C6
:0806340040FBFF7F0100000004
:10063C0000000000000000000000000000000000AE
:10064C00000000000000000000000000000000009E
:10065C002806000000000000000000000000000060
:10066C00000000000000000000000000000000007E
:10067C00000000000000000000000000000000006E
:10068C00000000000000000000000000000000005E
:0C069C00390100000D010000000000000A
:0400000300000219DE
:00000001FF
